:100000000C945D000C9485000C9485000C94850084
:100010000C9485000C9485000C9485000C9485004C
:100020000C9485000C9485000C9485000C9485003C
:100030000C9485000C9485000C9485000C9485002C
:100040000C948C020C9485000C9485000C94850013
:100050000C9485000C9485000C9485000C9485000C
:100060000C9485000C94850000000008000201003B
:100070000003040700000000000000000000000072
:10008000250028002B0000000000240027002A0083
:10009000040404040404040402020202020203032E
:1000A0000303030301020408102040800102040836
:1000B00010200102040810206E0311241FBECFEF90
:1000C000D8E0DEBFCDBF11E0A0E0B1E0E8E2F7E0AC
:1000D00002C005900D92A231B107D9F721E0A2E14B
:1000E000B1E001C01D92A333B207E1F710E0CDE506
:1000F000D0E004C02197FE010E948C03CC35D107CB
:10010000C9F70E94D6020C9492030C94000090E070
:10011000FC01EC55FF4F249180579F4FFC018491C7
:10012000882399F090E0880F991FFC01EA57FF4F50
:10013000A591B491FC01E458FF4F859194918FB73C
:10014000F894EC91E22BEC938FBF0895AF92BF929D
:10015000CF92DF92EF92FF920F931F93CF93DF9393
:100160006C017B018B01040F151FEB015E01AE18C2
:10017000BF08C017D10759F06991D601ED91FC91E4
:100180000190F081E02DC6010995892B79F7C50111
:10019000DF91CF911F910F91FF90EF90DF90CF9063
:1001A000BF90AF90089590E0FC01E859FF4F249173
:1001B000FC01EC55FF4F3491FC01E057FF4FE491F7
:1001C000EE23C9F0222339F0233001F1A8F42130C5
:1001D00019F1223029F1F0E0EE0FFF1FE458FF4F34
:1001E000A591B4918FB7F894EC91611126C0309528
:1001F0003E233C938FBF08952730A9F02830C9F0E3
:10020000243049F7809180008F7D03C08091800069
:100210008F7780938000DFCF84B58F7784BDDBCF6D
:1002200084B58F7DFBCF8091B0008F778093B00035
:10023000D2CF8091B0008F7DF9CF3E2BDACF3FB780
:10024000F8948091170190911801A0911901B09133
:100250001A0126B5A89B05C02F3F19F00196A11DD4
:10026000B11D3FBFBA2FA92F982F8827BC01CD0100
:10027000620F711D811D911D42E0660F771F881F5F
:10028000991F4A95D1F70895089590E080E0089568
:10029000CF93DF93EC0160E08E810E94D30061E098
:1002A0008E810E94D30060E08E810E94D3008BE893
:1002B00091E00197F1F7DF91CF910895CF92DF920E
:1002C000EF92FF920F931F93CF93DF936C017C010A
:1002D00087E0E80EF11CD0E0C0E0062F10E0B80186
:1002E0000C2E02C0759567950A94E2F76170F701CC
:1002F00081917F010E94D3002196C430D10579F706
:10030000C601DF91CF911F910F91FF90EF90DF9089
:10031000CF900C944801CF92DF92EF92FF920F930F
:100320001F93CF93DF93EC01F62E642F8C810E94F4
:10033000D3008D818F3F19F060E00E94D3000F2D14
:1003400010E08F8584FF25C06E0187E0C80ED11CA8
:10035000F12CE12CB8010E2C02C0759567950A941A
:10036000E2F76170F60181916F010E94D300FFEF07
:10037000EF1AFF0A88E0E816F10461F7CE01DF9179
:10038000CF911F910F91FF90EF90DF90CF900C9441
:100390004801B80184E0759567958A95E1F7CE012B
:1003A0000E945E016F2DCE01DF91CF911F910F91C1
:1003B000FF90EF90DF90CF900C945E0140E0682FAB
:1003C0008BE191E00C948B01CF93DF93823029F481
:1003D00090912A01986090932A0180932E011092A7
:1003E0002F0180E48093300180E18093310180E52A
:1003F0008093320180911F010E948700809120012B
:100400008F3F11F00E948700809121010E94870098
:10041000CBE1D1E09E012B51314080912A0184FD36
:100420000AC084E090E02196281739073CF48E81B9
:100430000E948700EFCF88E090E0F5CF8BE39DE04E
:100440000197F1F760E080911F010E94D30060E006
:10045000809121010E94D300809120018F3F19F0EB
:1004600060E00E94D30080912A0184FD39C063E0DE
:100470008BE191E00E945E01CBE4D6E4CE010197CE
:10048000F1F763E08BE191E00E945E012197F1F7C3
:1004900063E08BE191E00E945E0183E592E00197C9
:1004A000F1F762E08BE191E00E945E0180912A0108
:1004B00080620E94DE0184E080932B018CE00E9428
:1004C000DE0181E00E94DE018BE39FE10197F1F7FD
:1004D00082E080932C0186E0DF91CF910C94DE01C5
:1004E00080620E94DE018BE496E40197F1F780912F
:1004F0002A0180620E94DE0183E592E00197F1F714
:1005000080912A0180620E94DE01D0CF41E00E94EA
:100510008B0181E090E008951F920F920FB60F9229
:1005200011242F933F938F939F93AF93BF93809109
:10053000130190911401A0911501B0911601309111
:10054000120123E0230F2D3758F50196A11DB11D8F
:10055000209312018093130190931401A09315012D
:10056000B09316018091170190911801A091190183
:10057000B0911A010196A11DB11D809317019093AE
:100580001801A0931901B0931A01BF91AF919F91E7
:100590008F913F912F910F900FBE0F901F90189544
:1005A00026E8230F0296A11DB11DD2CF789484B501
:1005B000826084BD84B5816084BD85B5826085BD5F
:1005C00085B5816085BD80916E00816080936E00ED
:1005D00010928100809181008260809381008091DF
:1005E0008100816080938100809180008160809390
:1005F00080008091B10084608093B1008091B00050
:1006000081608093B00080917A00846080937A004A
:1006100080917A00826080937A0080917A00816074
:1006200080937A0080917A00806880937A0010929B
:10063000C10082E00E94E401CBE3DFE100E010E0D2
:100640009CEFF92E81E00E94DE01CE010197F1F7C7
:10065000E1E080912E018111E0E0E195F0E0E55EBE
:10066000FE4F84898F0D80680E94DE0144E050E0D7
:100670006CE071E08BE191E00E94A6000E941F01F6
:100680002B013C0188EE882E83E0982EA12CB12C02
:100690000E941F016419750986099709683E734015
:1006A00081059105A8F321E0821A9108A108B108FB
:1006B00088EE480E83E0581E611C711C8114910461
:1006C000A104B10429F7F39480E1F812BBCF01151E
:1006D000110509F4B5CF0E940000B2CFEBE1F1E0C3
:1006E0001382128284E091E09183808382E084838C
:1006F0008FEF858383E0868384E0878385E080872E
:1007000086E0818787E082871386148615861686A1
:10071000178681E00C94E401EE0FFF1F0590F49121
:08072000E02D0994F894FFCFCD
:10072800000000008602A600450144014D455254D0
:020738000000BF
:00000001FF
