:100000000C9461000C947E000C947E000C947E0095
:100010000C947E000C947E000C947E000C947E0068
:100020000C947E000C947E000C947E000C947E0058
:100030000C947E000C947E000C947E000C947E0048
:100040000C94FF000C947E000C947E000C947E00B7
:100050000C947E000C947E000C947E000C947E0028
:100060000C947E000C947E00000000002400270009
:100070002A000000000023002600290000000000E4
:10008000250028002B0004040404040404040202D4
:100090000202020203030303030301020408102007
:1000A0004080010204081020010204081020000012
:1000B0000008000201000003040700000000000027
:1000C000000011241FBECFEFD8E0DEBFCDBF11E08E
:1000D000A0E0B1E0ECE7F4E002C005900D92A031A1
:1000E000B107D9F721E0A0E1B1E001C01D92AA312A
:1000F000B207E1F70E9449010C943C020C94000005
:10010000833081F028F4813099F08230A9F008958D
:100110008730A9F08830C9F08430B1F48091800034
:100120008F7D03C0809180008F7780938000089539
:1001300084B58F7784BD089584B58F7DFBCF809182
:10014000B0008F778093B00008958091B0008F7DCC
:10015000F9CFCF93DF9390E0FC01E656FF4F249157
:100160008A579F4FFC0184918823D1F090E0880F3B
:10017000991FFC01E859FF4FA591B491FC01E45887
:10018000FF4FC591D49161110EC09FB7F8948C9127
:10019000E22FE0958E238C932881E223E8839FBF92
:1001A000DF91CF9108958FB7F894EC91E22BEC9307
:1001B0008FBFF6CF3FB7F89480911501909116014B
:1001C000A0911701B091180126B5A89B05C02F3F3B
:1001D00019F00196A11DB11D3FBFBA2FA92F982F6D
:1001E0008827BC01CD01620F711D811D911D42E068
:1001F000660F771F881F991F4A95D1F708951F92A0
:100200000F920FB60F9211242F933F938F939F93CA
:10021000AF93BF938091110190911201A0911301AE
:10022000B09114013091100123E0230F2D3758F5C0
:100230000196A11DB11D209310018093110190938F
:100240001201A0931301B0931401809115019091B4
:100250001601A0911701B09118010196A11DB11DC1
:100260008093150190931601A0931701B093180184
:10027000BF91AF919F918F913F912F910F900FBEA2
:100280000F901F90189526E8230F0296A11DB11D0F
:10029000D2CF789484B5826084BD84B5816084BDFA
:1002A00085B5826085BD85B5816085BD80916E0014
:1002B000816080936E001092810080918100826045
:1002C0008093810080918100816080938100809182
:1002D00080008160809380008091B1008460809371
:1002E000B1008091B00081608093B00080917A006D
:1002F000846080937A0080917A00826080937A0093
:1003000080917A00816080937A0080917A00806881
:1003100080937A001092C10061E082E00E94A900FF
:1003200061E083E00E94A90061E084E00E94A900EE
:1003300061E085E00E94A90061E086E00E94A900DA
:1003400061E087E00E94A90061E088E00E94A900C6
:1003500061E089E00E94A90060E08AE00E94A900B3
:100360001092190148EB242E40E0342E54EA852ED9
:1003700050E0952EC0E9D0E060E1A62E61E0B62EF7
:1003800000E010E0F1018491F401F490FE01E490AA
:10039000EE2009F468C081110E948000EE2DF0E08B
:1003A000EE0FFF1FEE58FF4FA591B4918C91F822EC
:1003B00009F459C0C090190181E08C0D8093190196
:1003C00020E0E22E21E0F22EF701219131917F0110
:1003D0003327F901E255FF4F8491F901E656FF4FAB
:1003E000D490F901EA57FF4F74907720A1F0811162
:1003F0000E948000E72DF0E0EE0FFF1FE458FF4F52
:10040000A591B4918FB7F894EC91C0FC33C0D0940F
:10041000DE22DC928FBFC694AE14BF04A9F60E9400
:10042000DA002B013C0188ECC82ED12CE12CF12CF8
:100430000E94DA006419750986099709683E7340BD
:1004400081059105A8F3F1E0CF1AD108E108F10880
:1004500028EE420E23E0521E611C711CC114D1040F
:10046000E104F10429F70115110509F48BCF0E946D
:0C047000000088CFDE2ACDCFF894FFCF2B
:10047C000200030004000500060007000800090044
:00000001FF
