:100000000C945C000C946E000C946E000C946E00CA
:100010000C946E000C946E000C946E000C946E00A8
:100020000C946E000C946E000C946E000C946E0098
:100030000C946E000C946E000C946E000C946E0088
:100040000C944D020C946E000C946E000C946E0097
:100050000C946E000C946E000C946E000C946E0068
:100060000C946E000C946E00000000080002010069
:100070000003040700000000000000000000000072
:10008000250028002B0000000000240027002A0083
:10009000040404040404040402020202020203032E
:1000A0000303030301020408102040800102040836
:1000B000102001020408102011241FBECFEFD8E049
:1000C000DEBFCDBF21E0A0E0B1E001C01D92A930AC
:1000D000B207E1F70E9497020C948E090C9400007D
:1000E00090E0FC01EC55FF4F249180579F4FFC019D
:1000F0008491882399F090E0880F991FFC01EA57BA
:10010000FF4FA591B491FC01E458FF4F8591949164
:100110008FB7F894EC91E22BEC938FBF089590E0A9
:10012000FC01E859FF4F2491FC01EC55FF4F34913D
:10013000FC01E057FF4FE491EE23C9F0222339F090
:10014000233001F1A8F4213019F1223029F1F0E037
:10015000EE0FFF1FE458FF4FA591B4918FB7F894AD
:10016000EC91611126C030953E233C938FBF0895DA
:100170002730A9F02830C9F0243049F78091800059
:100180008F7D03C0809180008F7780938000DFCFC8
:1001900084B58F7784BDDBCF84B58F7DFBCF809115
:1001A000B0008F778093B000D2CF8091B0008F7D68
:1001B000F9CF3E2BDACF3FB7F894809105019091AB
:1001C0000601A0910701B091080126B5A89B05C0C2
:1001D0002F3F19F00196A11DB11D3FBFBA2FA92FC6
:1001E000982F8827BC01CD01620F711D811D911DC3
:1001F00042E0660F771F881F991F4A95D1F708952F
:100200008F929F92AF92BF92CF92DF92EF92FF9226
:100210000E94DB004B015C0185E0C82ED12CE12C53
:10022000F12C0E94DB00681979098A099B09683E54
:10023000734081059105A8F321E0C21AD108E108B5
:10024000F10888EE880E83E0981EA11CB11CC11431
:10025000D104E104F10429F7FF90EF90DF90CF90F3
:10026000BF90AF909F908F90089560E082E00E94D1
:100270008F0060E083E00E948F0060E084E00E94D5
:100280008F0060E085E00E948F0061E086E00E94C0
:100290008F0060E087E00E948F0060E088E00C94AF
:1002A0008F0060E082E00E948F0060E083E00E94A7
:1002B0008F0060E084E00E948F0060E085E00E9493
:1002C0008F0060E086E00E948F0060E087E00E947F
:1002D0008F0060E088E00C948F0060E082E00E9474
:1002E0008F0060E083E00E948F0060E084E00E9465
:1002F0008F0061E085E00E948F0061E086E00E944F
:100300008F0061E087E00E948F0061E088E00C943C
:100310008F0060E082E00E948F0061E083E00E9435
:100320008F0060E084E00E948F0060E085E00E9422
:100330008F0060E086E00E948F0060E087E00E940E
:100340008F0060E088E00C948F0060E082E00E9403
:100350008F0061E083E00E948F0060E084E00E94F3
:100360008F0060E085E00E948F0061E086E00E94DF
:100370008F0060E087E00E948F0060E088E00C94CE
:100380008F0061E082E00E948F0060E083E00E94C5
:100390008F0060E084E00E948F0061E085E00E94B1
:1003A0008F0061E086E00E948F0060E087E00E949D
:1003B0008F0060E088E00C948F0060E082E00E9493
:1003C0008F0060E083E00E948F0060E084E00E9484
:1003D0008F0060E085E00E948F0061E086E00E946F
:1003E0008F0061E087E00E948F0060E088E00C945D
:1003F0008F0060E082E00E948F0060E083E00E9456
:100400008F0061E084E00E948F0060E085E00E9440
:100410008F0060E086E00E948F0061E087E00E942C
:100420008F0060E088E00C948F0061E082E00E9421
:100430008F0060E083E00E948F0060E084E00E9413
:100440008F0061E085E00E948F0061E086E00E94FD
:100450008F0061E087E00E948F0061E088E00C94EB
:100460008F0060E082E00E948F0060E083E00E94E5
:100470008F0060E084E00E948F0060E085E00E94D1
:100480008F0060E086E00E948F0060E087E00E94BD
:100490008F0061E088E00C948F001F920F920FB6DE
:1004A0000F9211242F933F938F939F93AF93BF93FA
:1004B0008091010190910201A0910301B09104018A
:1004C0003091000123E0230F2D3758F50196A11D2F
:1004D000B11D209300018093010190930201A0932C
:1004E0000301B09304018091050190910601A09150
:1004F0000701B09108010196A11DB11D809305016E
:1005000090930601A0930701B0930801BF91AF91AA
:100510009F918F913F912F910F900FBE0F901F9041
:10052000189526E8230F0296A11DB11DD2CF78940D
:1005300084B5826084BD84B5816084BD85B58260E8
:1005400085BD85B5816085BD80916E008160809399
:100550006E00109281008091810082608093810002
:100560008091810081608093810080918000816012
:10057000809380008091B10084608093B10080916D
:10058000B00081608093B00080917A008460809395
:100590007A0080917A00826080937A0080917A005C
:1005A000816080937A0080917A00806880937A00DD
:1005B0001092C10082E00E94700083E00E947000EF
:1005C00084E00E94700085E00E94700086E00E9436
:1005D000700087E00E94700088E00E94700089E04F
:1005E0000E9470008AE00E94700000E010E0C4E603
:1005F000D0E060E089E00E948F0061E08AE00E9424
:100600008F000E9431020E94000161E089E00E9497
:100610008F0060E08AE00E948F000E9431020E94F9
:100620000001219731F7C4E6D0E060E089E00E9444
:100630008F0061E08AE00E948F000E9431020E94D8
:10064000000161E089E00E948F0060E08AE00E9482
:100650008F000E9415020E940001219731F7C4E625
:10066000D0E060E089E00E948F0061E08AE00E94B3
:100670008F000E9431020E94000161E089E00E9427
:100680008F0060E08AE00E948F000E94F9010E94C2
:100690000001219731F7C4E6D0E060E089E00E94D4
:1006A0008F0061E08AE00E948F000E9431020E9468
:1006B000000161E089E00E948F0060E08AE00E9412
:1006C0008F000E94DD010E940001219731F7C4E6EE
:1006D000D0E060E089E00E948F0061E08AE00E9443
:1006E0008F000E9431020E94000161E089E00E94B7
:1006F0008F0060E08AE00E948F000E94C1010E948A
:100700000001219731F7C4E6D0E060E089E00E9463
:100710008F0061E08AE00E948F000E9431020E94F7
:10072000000161E089E00E948F0060E08AE00E94A1
:100730008F000E94A5010E940001219731F7C4E6B5
:10074000D0E060E089E00E948F0061E08AE00E94D2
:100750008F000E9431020E94000161E089E00E9446
:100760008F0060E08AE00E948F000E9489010E9451
:100770000001219731F7C4E6D0E060E089E00E94F3
:100780008F0061E08AE00E948F000E9431020E9487
:10079000000161E089E00E948F0060E08AE00E9431
:1007A0008F000E946D010E940001219731F7C4E67D
:1007B000D0E060E089E00E948F0061E08AE00E9462
:1007C0008F000E9431020E94000161E089E00E94D6
:1007D0008F0060E08AE00E948F000E9451010E9419
:1007E0000001219731F7C4E6D0E060E089E00E9483
:1007F0008F0061E08AE00E948F000E9431020E9417
:10080000000161E089E00E948F0060E08AE00E94C0
:100810008F000E9435010E940001219731F7C4E644
:10082000D0E060E089E00E948F0061E08AE00E94F1
:100830008F000E9415020E94000161E089E00E9481
:100840008F0060E08AE00E948F000E9431020E94C7
:100850000001219731F7C4E6D0E060E089E00E9412
:100860008F0061E08AE00E948F000E9415020E94C2
:10087000000161E089E00E948F0060E08AE00E9450
:100880008F000E9415020E940001219731F7C4E6F3
:10089000D0E060E089E00E948F0061E08AE00E9481
:1008A0008F000E9415020E94000161E089E00E9411
:1008B0008F0060E08AE00E948F000E94F9010E9490
:1008C0000001219731F7C4E6D0E060E089E00E94A2
:1008D0008F0061E08AE00E948F000E9415020E9452
:1008E000000161E089E00E948F0060E08AE00E94E0
:1008F0008F000E94DD010E940001219731F7C4E6BC
:10090000D0E060E089E00E948F0061E08AE00E9410
:100910008F000E9415020E94000161E089E00E94A0
:100920008F0060E08AE00E948F000E94C1010E9457
:100930000001219731F7C4E6D0E060E089E00E9431
:100940008F0061E08AE00E948F000E9415020E94E1
:10095000000161E089E00E948F0060E08AE00E946F
:100960008F000E94A5010E940001219731F7C4E683
:10097000D0E060E089E00E948F0061E08AE00E94A0
:100980008F000E9415020E94000161E089E00E9430
:100990008F0060E08AE00E948F000E9489010E941F
:1009A0000001219731F7C4E6D0E060E089E00E94C1
:1009B0008F0061E08AE00E948F000E9415020E9471
:1009C000000161E089E00E948F0060E08AE00E94FF
:1009D0008F000E946D010E940001219731F7C4E64B
:1009E000D0E060E089E00E948F0061E08AE00E9430
:1009F0008F000E9415020E94000161E089E00E94C0
:100A00008F0060E08AE00E948F000E9451010E94E6
:100A10000001219731F7C4E6D0E060E089E00E9450
:100A20008F0061E08AE00E948F000E9415020E9400
:100A3000000161E089E00E948F0060E08AE00E948E
:100A40008F000E9435010E940001219731F7C4E612
:100A5000D0E060E089E00E948F0061E08AE00E94BF
:100A60008F000E94F9010E94000161E089E00E946C
:100A70008F0060E08AE00E948F000E9431020E9495
:100A80000001219731F7C4E6D0E060E089E00E94E0
:100A90008F0061E08AE00E948F000E94F9010E94AD
:100AA000000161E089E00E948F0060E08AE00E941E
:100AB0008F000E9415020E940001219731F7C4E6C1
:100AC000D0E060E089E00E948F0061E08AE00E944F
:100AD0008F000E94F9010E94000161E089E00E94FC
:100AE0008F0060E08AE00E948F000E94F9010E945E
:100AF0000001219731F7C4E6D0E060E089E00E9470
:100B00008F0061E08AE00E948F000E94F9010E943C
:100B1000000161E089E00E948F0060E08AE00E94AD
:100B20008F000E94DD010E940001219731F7C4E689
:100B3000D0E060E089E00E948F0061E08AE00E94DE
:100B40008F000E94F9010E94000161E089E00E948B
:100B50008F0060E08AE00E948F000E94C1010E9425
:100B60000001219731F7C4E6D0E060E089E00E94FF
:100B70008F0061E08AE00E948F000E94F9010E94CC
:100B8000000161E089E00E948F0060E08AE00E943D
:100B90008F000E94A5010E940001219731F7C4E651
:100BA000D0E060E089E00E948F0061E08AE00E946E
:100BB0008F000E94F9010E94000161E089E00E941B
:100BC0008F0060E08AE00E948F000E9489010E94ED
:100BD0000001219731F7C4E6D0E060E089E00E948F
:100BE0008F0061E08AE00E948F000E94F9010E945C
:100BF000000161E089E00E948F0060E08AE00E94CD
:100C00008F000E946D010E940001219731F7C4E618
:100C1000D0E060E089E00E948F0061E08AE00E94FD
:100C20008F000E94F9010E94000161E089E00E94AA
:100C30008F0060E08AE00E948F000E9451010E94B4
:100C40000001219731F7C4E6D0E060E089E00E941E
:100C50008F0061E08AE00E948F000E94F9010E94EB
:100C6000000161E089E00E948F0060E08AE00E945C
:100C70008F000E9435010E940001219731F7C4E6E0
:100C8000D0E060E089E00E948F0061E08AE00E948D
:100C90008F000E94DD010E94000161E089E00E9456
:100CA0008F0060E08AE00E948F000E9431020E9463
:100CB0000001219731F7C4E6D0E060E089E00E94AE
:100CC0008F0061E08AE00E948F000E94DD010E9497
:100CD000000161E089E00E948F0060E08AE00E94EC
:100CE0008F000E9415020E940001219731F7C4E68F
:100CF000D0E060E089E00E948F0061E08AE00E941D
:100D00008F000E94DD010E94000161E089E00E94E5
:100D10008F0060E08AE00E948F000E94F9010E942B
:100D20000001219731F7C4E6D0E060E089E00E943D
:100D30008F0061E08AE00E948F000E94DD010E9426
:100D4000000161E089E00E948F0060E08AE00E947B
:100D50008F000E94DD010E940001219731F7C4E657
:100D6000D0E060E089E00E948F0061E08AE00E94AC
:100D70008F000E94DD010E94000161E089E00E9475
:100D80008F0060E08AE00E948F000E94C1010E94F3
:100D90000001219731F7C4E6D0E060E089E00E94CD
:100DA0008F0061E08AE00E948F000E94DD010E94B6
:100DB000000161E089E00E948F0060E08AE00E940B
:100DC0008F000E94A5010E940001219731F7C4E61F
:100DD000D0E060E089E00E948F0061E08AE00E943C
:100DE0008F000E94DD010E94000161E089E00E9405
:100DF0008F0060E08AE00E948F000E9489010E94BB
:100E00000001219731F7C4E6D0E060E089E00E945C
:100E10008F0061E08AE00E948F000E94DD010E9445
:100E2000000161E089E00E948F0060E08AE00E949A
:100E30008F000E946D010E940001219731F7C4E6E6
:100E4000D0E060E089E00E948F0061E08AE00E94CB
:100E50008F000E94DD010E94000161E089E00E9494
:100E60008F0060E08AE00E948F000E9451010E9482
:100E70000001219731F7C4E6D0E060E089E00E94EC
:100E80008F0061E08AE00E948F000E94DD010E94D5
:100E9000000161E089E00E948F0060E08AE00E942A
:100EA0008F000E9435010E940001219731F7C4E6AE
:100EB000D0E060E089E00E948F0061E08AE00E945B
:100EC0008F000E94C1010E94000161E089E00E9440
:100ED0008F0060E08AE00E948F000E9431020E9431
:100EE0000001219731F7C4E6D0E060E089E00E947C
:100EF0008F0061E08AE00E948F000E94C1010E9481
:100F0000000161E089E00E948F0060E08AE00E94B9
:100F10008F000E9415020E940001219731F7C4E65C
:100F2000D0E060E089E00E948F0061E08AE00E94EA
:100F30008F000E94C1010E94000161E089E00E94CF
:100F40008F0060E08AE00E948F000E94F9010E94F9
:100F50000001219731F7C4E6D0E060E089E00E940B
:100F60008F0061E08AE00E948F000E94C1010E9410
:100F7000000161E089E00E948F0060E08AE00E9449
:100F80008F000E94DD010E940001219731F7C4E625
:100F9000D0E060E089E00E948F0061E08AE00E947A
:100FA0008F000E94C1010E94000161E089E00E945F
:100FB0008F0060E08AE00E948F000E94C1010E94C1
:100FC0000001219731F7C4E6D0E060E089E00E949B
:100FD0008F0061E08AE00E948F000E94C1010E94A0
:100FE000000161E089E00E948F0060E08AE00E94D9
:100FF0008F000E94A5010E940001219731F7C4E6ED
:10100000D0E060E089E00E948F0061E08AE00E9409
:101010008F000E94C1010E94000161E089E00E94EE
:101020008F0060E08AE00E948F000E9489010E9488
:101030000001219731F7C4E6D0E060E089E00E942A
:101040008F0061E08AE00E948F000E94C1010E942F
:10105000000161E089E00E948F0060E08AE00E9468
:101060008F000E946D010E940001219731F7C4E6B4
:10107000D0E060E089E00E948F0061E08AE00E9499
:101080008F000E94C1010E94000161E089E00E947E
:101090008F0060E08AE00E948F000E9451010E9450
:1010A0000001219731F7C4E6D0E060E089E00E94BA
:1010B0008F0061E08AE00E948F000E94C1010E94BF
:1010C000000161E089E00E948F0060E08AE00E94F8
:1010D0008F000E9435010E940001219731F7C4E67C
:1010E000D0E060E089E00E948F0061E08AE00E9429
:1010F0008F000E94A5010E94000161E089E00E942A
:101100008F0060E08AE00E948F000E9431020E94FE
:101110000001219731F7C4E6D0E060E089E00E9449
:101120008F0061E08AE00E948F000E94A5010E946A
:10113000000161E089E00E948F0060E08AE00E9487
:101140008F000E9415020E940001219731F7C4E62A
:10115000D0E060E089E00E948F0061E08AE00E94B8
:101160008F000E94A5010E94000161E089E00E94B9
:101170008F0060E08AE00E948F000E94F9010E94C7
:101180000001219731F7C4E6D0E060E089E00E94D9
:101190008F0061E08AE00E948F000E94A5010E94FA
:1011A000000161E089E00E948F0060E08AE00E9417
:1011B0008F000E94DD010E940001219731F7C4E6F3
:1011C000D0E060E089E00E948F0061E08AE00E9448
:1011D0008F000E94A5010E94000161E089E00E9449
:1011E0008F0060E08AE00E948F000E94C1010E948F
:1011F0000001219731F7C4E6D0E060E089E00E9469
:101200008F0061E08AE00E948F000E94A5010E9489
:10121000000161E089E00E948F0060E08AE00E94A6
:101220008F000E94A5010E940001219731F7C4E6BA
:10123000D0E060E089E00E948F0061E08AE00E94D7
:101240008F000E94A5010E94000161E089E00E94D8
:101250008F0060E08AE00E948F000E9489010E9456
:101260000001219731F7C4E6D0E060E089E00E94F8
:101270008F0061E08AE00E948F000E94A5010E9419
:10128000000161E089E00E948F0060E08AE00E9436
:101290008F000E946D010E940001219731F7C4E682
:1012A000D0E060E089E00E948F0061E08AE00E9467
:1012B0008F000E94A5010E94000161E089E00E9468
:1012C0008F0060E08AE00E948F000E9451010E941E
:1012D0000001219731F7C4E6D0E060E089E00E9488
:1012E0008F0061E08AE00E948F000E94A5010E94A9
:1012F000000161E089E00E948F0060E08AE00E94C6
:101300008F000E9435010E940001219731F70115DD
:10131000110509F46CC90E94000069C9F894FFCF57
:00000001FF
